{
  "contractName": "Todo",
  "abi": [
    {
      "inputs": [
        {
          "internalType": "string",
          "name": "_work",
          "type": "string"
        }
      ],
      "name": "createWork",
      "outputs": [],
      "stateMutability": "nonpayable",
      "type": "function"
    },
    {
      "inputs": [
        {
          "internalType": "uint256",
          "name": "_workNumber",
          "type": "uint256"
        }
      ],
      "name": "getWork",
      "outputs": [
        {
          "components": [
            {
              "internalType": "string",
              "name": "work",
              "type": "string"
            },
            {
              "internalType": "bool",
              "name": "isCompleted",
              "type": "bool"
            }
          ],
          "internalType": "struct Todo.Work",
          "name": "",
          "type": "tuple"
        }
      ],
      "stateMutability": "view",
      "type": "function",
      "constant": true
    },
    {
      "inputs": [
        {
          "internalType": "uint256",
          "name": "_workNumber",
          "type": "uint256"
        },
        {
          "internalType": "bool",
          "name": "_status",
          "type": "bool"
        }
      ],
      "name": "changeStatus",
      "outputs": [],
      "stateMutability": "nonpayable",
      "type": "function"
    },
    {
      "inputs": [
        {
          "internalType": "uint256",
          "name": "_workNumber",
          "type": "uint256"
        }
      ],
      "name": "deleteWork",
      "outputs": [],
      "stateMutability": "nonpayable",
      "type": "function"
    },
    {
      "inputs": [],
      "name": "geWorkCount",
      "outputs": [
        {
          "internalType": "uint256",
          "name": "",
          "type": "uint256"
        }
      ],
      "stateMutability": "view",
      "type": "function",
      "constant": true
    }
  ],
  "bytecode": "0x608060405234801561001057600080fd5b50610b43806100206000396000f3fe608060405234801561001057600080fd5b5060043610610074576000357c010000000000000000000000000000000000000000000000000000000090048063573d21f3146100795780635dbe4ef4146100a95780636c17eaf7146100c75780638589c725146100e3578063fa2693b3146100ff575b600080fd5b610093600480360381019061008e919061054c565b61011b565b6040516100a09190610661565b60405180910390f35b6100b1610246565b6040516100be9190610692565b60405180910390f35b6100e160048036038101906100dc9190610712565b61028f565b005b6100fd60048036038101906100f8919061054c565b61038e565b005b6101196004803603810190610114919061078b565b610416565b005b610123610493565b60008060003373ffffffffffffffffffffffffffffffffffffffff1673ffffffffffffffffffffffffffffffffffffffff1681526020019081526020016000208381548110610175576101746107cb565b5b90600052602060002090600202019050806040518060400160405290816000820180546101a190610829565b80601f01602080910402602001604051908101604052809291908181526020018280546101cd90610829565b801561021a5780601f106101ef5761010080835404028352916020019161021a565b820191906000526020600020905b8154815290600101906020018083116101fd57829003601f168201915b505050505081526020016001820160009054906101000a900460ff161515151581525050915050919050565b60008060003373ffffffffffffffffffffffffffffffffffffffff1673ffffffffffffffffffffffffffffffffffffffff16815260200190815260200160002080549050905090565b6000803373ffffffffffffffffffffffffffffffffffffffff1673ffffffffffffffffffffffffffffffffffffffff168152602001908152602001600020604051806040016040528084848080601f016020809104026020016040519081016040528093929190818152602001838380828437600081840152601f19601f82011690508083019250505050505050815260200160001515815250908060018154018082558091505060019003906000526020600020906002020160009091909190915060008201518160000190816103679190610a3b565b5060208201518160010160006101000a81548160ff02191690831515021790555050505050565b6000803373ffffffffffffffffffffffffffffffffffffffff1673ffffffffffffffffffffffffffffffffffffffff16815260200190815260200160002081815481106103de576103dd6107cb565b5b9060005260206000209060020201600080820160006103fd91906104af565b6001820160006101000a81549060ff0219169055505050565b806000803373ffffffffffffffffffffffffffffffffffffffff1673ffffffffffffffffffffffffffffffffffffffff1681526020019081526020016000208381548110610467576104666107cb565b5b906000526020600020906002020160010160006101000a81548160ff0219169083151502179055505050565b6040518060400160405280606081526020016000151581525090565b5080546104bb90610829565b6000825580601f106104cd57506104ec565b601f0160209004906000526020600020908101906104eb91906104ef565b5b50565b5b808211156105085760008160009055506001016104f0565b5090565b600080fd5b600080fd5b6000819050919050565b61052981610516565b811461053457600080fd5b50565b60008135905061054681610520565b92915050565b6000602082840312156105625761056161050c565b5b600061057084828501610537565b91505092915050565b600081519050919050565b600082825260208201905092915050565b60005b838110156105b3578082015181840152602081019050610598565b60008484015250505050565b6000601f19601f8301169050919050565b60006105db82610579565b6105e58185610584565b93506105f5818560208601610595565b6105fe816105bf565b840191505092915050565b60008115159050919050565b61061e81610609565b82525050565b6000604083016000830151848203600086015261064182826105d0565b91505060208301516106566020860182610615565b508091505092915050565b6000602082019050818103600083015261067b8184610624565b905092915050565b61068c81610516565b82525050565b60006020820190506106a76000830184610683565b92915050565b600080fd5b600080fd5b600080fd5b60008083601f8401126106d2576106d16106ad565b5b8235905067ffffffffffffffff8111156106ef576106ee6106b2565b5b60208301915083600182028301111561070b5761070a6106b7565b5b9250929050565b600080602083850312156107295761072861050c565b5b600083013567ffffffffffffffff81111561074757610746610511565b5b610753858286016106bc565b92509250509250929050565b61076881610609565b811461077357600080fd5b50565b6000813590506107858161075f565b92915050565b600080604083850312156107a2576107a161050c565b5b60006107b085828601610537565b92505060206107c185828601610776565b9150509250929050565b7f4e487b7100000000000000000000000000000000000000000000000000000000600052603260045260246000fd5b7f4e487b7100000000000000000000000000000000000000000000000000000000600052602260045260246000fd5b6000600282049050600182168061084157607f821691505b602082108103610854576108536107fa565b5b50919050565b7f4e487b7100000000000000000000000000000000000000000000000000000000600052604160045260246000fd5b60008190508160005260206000209050919050565b60006020601f8301049050919050565b60008160020a8302905092915050565b6000600883026108ee7fffffffffffffffffffffffffffffffffffffffffffffffffffffffffffffffff826108ae565b6108f886836108ae565b95508019841693508086168417925050509392505050565b6000819050919050565b600061093561093061092b84610516565b610910565b610516565b9050919050565b6000819050919050565b61094f8361091a565b61096361095b8261093c565b8484546108be565b825550505050565b600090565b61097861096b565b610983818484610946565b505050565b5b818110156109a75761099c600082610970565b600181019050610989565b5050565b601f8211156109ec576109bd81610889565b6109c68461089e565b810160208510156109d5578190505b6109e96109e18561089e565b830182610988565b50505b505050565b60008160020a8304905092915050565b6000610a12600019846008026109f1565b1980831691505092915050565b6000610a2b8383610a01565b9150826002028217905092915050565b610a4482610579565b67ffffffffffffffff811115610a5d57610a5c61085a565b5b610a678254610829565b610a728282856109ab565b600060209050601f831160018114610aa55760008415610a93578287015190505b610a9d8582610a1f565b865550610b05565b601f198416610ab386610889565b60005b82811015610adb57848901518255600182019150602085019450602081019050610ab6565b86831015610af85784890151610af4601f891682610a01565b8355505b6001600288020188555050505b50505050505056fea264697066735822122084d8829e8dc2c83ba912459bf8c7d0f70d5516d8b11255ec3cd723b4b2c673e264736f6c63430008120033",
  "immutableReferences": {},
  "source": "// SPDX-License-Identifier: MIT\r\npragma solidity >=0.4.22 <0.9.0;\r\npragma experimental ABIEncoderV2;\r\n\r\ncontract Todo {\r\n    struct Work{\r\n        string work;\r\n        bool isCompleted;\r\n\r\n    }\r\n\r\n    mapping (address => Work[]) private Users;\r\n   \r\n    // function to add or create a task\r\n    function createWork(string calldata _work) external{\r\n        Users[msg.sender].push(Work ({\r\n            work:_work,\r\n            isCompleted: false\r\n            \r\n        }));\r\n    }\r\n\r\n// function to get task details\r\n    function getWork (uint _workNumber) external view returns (Work memory){\r\n        Work storage work = Users[msg.sender][_workNumber];\r\n        return work;\r\n    }\r\n\r\n// function to change status of a task\r\n    function changeStatus(uint256 _workNumber,bool _status) external{\r\n        Users[msg.sender][_workNumber].isCompleted = _status;\r\n   }\r\n\r\n// function to delete a task\r\n   function deleteWork(uint256 _workNumber) external{\r\n       delete Users[msg.sender][_workNumber];\r\n   }\r\n\r\n// function to know how many tasks users have created\r\n   function geWorkCount() external view returns (uint256){\r\n    return Users[msg.sender].length;\r\n    } \r\n}",
  "sourcePath": "C:\\Users\\pecul\\Desktop\\DEV\\TaskMesh\\truffle\\contracts\\Todo.sol",
  "compiler": {
    "name": "solc",
    "version": "0.8.18+commit.87f61d96.Emscripten.clang"
  },
  "schemaVersion": "3.4.13",
  "updatedAt": "2023-03-05T12:41:16.835Z",
  "networkType": "ethereum",
  "devdoc": {
    "kind": "dev",
    "methods": {},
    "version": 1
  },
  "userdoc": {
    "kind": "user",
    "methods": {},
    "version": 1
  }
}